:100000000C94BC030C94E4030C94E4030C94E403FC
:100010000C94E4030C94E4030C94E4030C94E403C4
:100020000C94E4030C94E4030C9468070C94D70735
:100030000C94E4030C94E4030C94E4030C94E403A4
:100040000C94E4030C94E4030C94E4030C94E40394
:100050000C94E4030C94E4030C94E4030C94C8099A
:100060000C94E4030C94E4030C94E4030C94E40374
:100070000C94E4030C94E4030C94E4030C94E40364
:100080000C94E4030C94E4030C94E4030C94E40354
:100090000C94E4030C94E4030C94E4030C94E40344
:1000A0000C94E4030C94E4030C94E40300000000BB
:1000B000003E5B4F5B3E3E6B4F6B3E1C3E7C3E1CEE
:1000C000183C7E3C181C577D571C1C5E7F5E1C0034
:1000D000183C1800FFE7C3E7FF0018241800FFE7EB
:1000E000DBE7FF30483A060E2629792926407F05AE
:1000F0000507407F05253F5A3CE73C5A7F3E1C1CC4
:1001000008081C1C3E7F14227F22145F5F005F5F83
:1001100006097F017F006689956A6060606060946F
:10012000A2FFA29408047E040810207E2010080874
:100130002A1C08081C2A08081E101010100C1E0C7F
:100140001E0C30383E3830060E3E0E060000000011
:100150000000005F00000007000700147F147F14F8
:10016000242A7F2A1223130864623649562050003D
:1001700008070300001C2241000041221C002A1C29
:100180007F1C2A08083E0808008070300008080814
:100190000808000060600020100804023E51494534
:1001A0003E00427F400072494949462141494D3352
:1001B0001814127F1027454545393C4A49493141B9
:1001C000211109073649494936464949291E000087
:1001D00014000000403400000008142241141414DC
:1001E0001414004122140802015909063E415D59C8
:1001F0004E7C1211127C7F494949363E41414122D1
:100200007F4141413E7F494949417F090909013EFA
:10021000414151737F0808087F00417F4100204021
:10022000413F017F081422417F404040407F021C33
:10023000027F7F0408107F3E4141413E7F0909094A
:10024000063E4151215E7F09192946264949493216
:1002500003017F01033F4040403F1F2040201F3FDC
:100260004038403F63140814630304780403615961
:10027000494D43007F4141410204081020004141A3
:10028000417F04020102044040404040000307084F
:100290000020545478407F2844443838444444284B
:1002A000384444287F385454541800087E090218F2
:1002B000A4A49C787F0804047800447D400020407A
:1002C000403D007F1028440000417F40007C0478BE
:1002D00004787C080404783844444438FC18242406
:1002E0001818242418FC7C08040408485454542486
:1002F00004043F44243C4040207C1C2040201C3C03
:100300004030403C44281028444C9090907C4464F9
:10031000544C44000836410000007700000041368C
:10032000080002010204023C2623263C1EA1A16112
:10033000123A4040207A3854545559215555794144
:100340002154547841215554784020545579400C1B
:100350001E527212395555555939545454593955FC
:100360005454580000457C410002457D420001453F
:100370007C40F0292429F0F0282528F07C545545AC
:10038000002054547C547C0A097F4932494949323F
:100390003248484832324A4848303A4141217A3A54
:1003A00042402078009DA0A07D39444444393D401E
:1003B00040403D3C24FF2424487E4943662B2FFCCB
:1003C0002F2BFF0929F620C0887E09032054547979
:1003D000410000447D413048484A32384040227A4A
:1003E000007A0A0A727D0D19317D2629292F2826C7
:1003F0002929292630484D402038080808080808CF
:100400000808382F10C8ACBA2F102834FA00007B27
:10041000000008142A142222142A1408950022002D
:1004200095AA005500AAAA55AA55AA000000FF00E7
:10043000101010FF00141414FF001010FF00FF1024
:1004400010F010F0141414FC001414F700FF000056
:10045000FF00FF1414F404FC141417101F10101FD5
:10046000101F1414141F00101010F0000000001FC3
:10047000101010101F10101010F010000000FF10CE
:100480001010101010101010FF10000000FF1400CA
:1004900000FF00FF00001F10170000FC04F41414FC
:1004A0001710171414F404F40000FF00F7141414C8
:1004B00014141414F700F7141414171410101F1048
:1004C0001F141414F4141010F010F000001F101F6B
:1004D0000000001F14000000FC140000F010F010D9
:1004E00010FF10FF141414FF141010101F00000050
:1004F00000F010FFFFFFFFFFF0F0F0F0F0FFFFFF54
:100500000000000000FFFF0F0F0F0F0F38444438AA
:10051000447C2A2A3E147E02020606027E027E02E5
:1005200063554941633844443C04407E201E200604
:10053000027E020299A5E7A5991C2A492A1C4C7241
:1005400001724C304A4D4D303048784830BC625AC8
:10055000463D3E494949007E0101017E2A2A2A2A58
:100560002A44445F444440514A444040444A514034
:100570000000FF0103E080FF000008086B6B0836F5
:1005800012362436060F090F060000181800000066
:100590001010003040FF0101001F01011E00191D55
:1005A0001712003C3C3C3C0000000000F0F89C8E20
:1005B0008783878E9CF8F00000FEFF03030303038C
:1005C000070EFCF80000FEFF0303030303070EFC05
:1005D000F80000FFFF00000000000000FFFF000027
:1005E000FEFF8383838383C7EE7C380000F8FC0E14
:1005F00007030303070EFCF800003F7FE0C0808084
:10060000C0E07F3FFFFF01010101010101FFFF0089
:1006100000FFFF0C0C0C0C1C3E77E3C100007FFFB9
:10062000C0C0C0C0C0E0703F1F00001F3F70E0C0EE
:10063000C0C0E0703F1F00007FFFC1C1C1C1C1E366
:10064000773E1C00001F3F70E0C0C0C0E0703F1F3D
:10065000000000000001FFFF01000000D5F08D1434
:10066000A1C881CFD9F1AF20002D2D2D2D2D2D2DFD
:100670002D2D2D2D2D2D2D2D2D2D2D2D2D2D006E96
:1006800065772067616D652100596F75206D61790F
:10069000206E6F772075706C6F61642061002D2D66
:1006A0002D2D2D2D2D2D2D2D2D2D2D2D2D2D2D2D7A
:1006B0002D2D2D007375636365737366756C6C798E
:1006C00020726573746F72656400596F7572204192
:1006D000726475626F7920686173206265656E006F
:1006E0002D2D2D2D2D2D2D2D2D2D2D2D2D2D2D2D3A
:1006F0002D2D2D2D2D00202041524455424F5920A3
:10070000524553544F52454400080B000202020167
:100710000009040000010202000005240010010588
:1007200024010101042402060524060001070581B5
:100730000310004009040100020A0000000705023E
:100740000240000007058302400000040309041270
:10075000010002EF02014041233680000101020343
:100760000141726475696E6F204C4C4300417264A4
:1007700075626F790000A50A11241FBECFEFDAE081
:10078000DEBFCDBF11E0A0E0B1E0E2EDF9E102C0D3
:1007900005900D92AC33B107D9F725E0ACE3B1E099
:1007A00001C01D92A53CB207E1F713E0CCEBD3E00A
:1007B00004C02197FE010E94E10CCB3BD107C9F791
:1007C0000E94D60A0C94E70C0C940000EEE5F1E0D0
:1007D000A0E0B8E000800EBC8111012C1197A0FDB3
:1007E000FDCF0192B9F70DB40895FC0180915D0130
:1007F000882311F13FB7F89482E08093E9002091BB
:10080000F200822F90E01816190614F481E090E0AF
:10081000882339F0289844E640935C014091F10028
:100820004083222339F02091F200211103C02BE6EE
:100830002093E8003FBF08958FEF9FEF08952FB7F3
:10084000F89483E08093E9009091E800892F80720A
:1008500095FF04C09091F20080E4891B2FBF08959A
:100860008091540181110DC082E08093500184E099
:1008700080935101109253011092520181E08093B4
:10088000540180E591E00895CF93DF931F92CDB797
:10089000DEB76983DC01ED91FC910280F381E02DEC
:1008A00041E050E0BE016F5F7F4F09950F90DF91EF
:1008B000CF91089583E08093E9008091F20088232E
:1008C00019F08AE38093E80008950E941F0490E0E5
:1008D0000895CF93DF931F92CDB7DEB7FC018485D7
:1008E000958597FD08C02FEF3FEF358724870F9040
:1008F000DF91CF910895CE0101960E94F5030197F3
:1009000019F4898190E0F3CF8FEF9FEFF0CF0F9331
:100910001F93CF93DF931F92CDB7DEB78C01FC01FD
:100920008485958597FF0BC0CE0101960E94F50343
:10093000019771F4898190E0F80195878487F80127
:10094000848595850F90DF91CF911F910F91089528
:100950008FEF9FEFF1CFFC018485958597FD0BC04C
:100960009FB7F89482E08093E9008091F2009FBFE6
:1009700090E0019608959FB7F89482E08093E90093
:100980008091F2009FBF90E0089540914A015091FC
:100990004B01209148013091490142175307B4F4AB
:1009A0009091E8009570E1F39091E80092FD19C0F4
:1009B0008093F10080914A0190914B0101968F73D1
:1009C0009927892B19F48EEF8093E80080914A01D2
:1009D00090914B01019690934B0180934A0181E0E5
:1009E000089580E00895DF92EF92FF920F931F9396
:1009F000CF93DF93D82E8A01EB017B01E40EF51E25
:100A0000CE15DF0559F0D7FE12C0FE0184910E9479
:100A1000C50421968111F4CF0FEF1FEFC801DF91BC
:100A2000CF911F910F91FF90EF90DF9008958881F3
:100A3000EECF0F931F93CF93DF931F92CDB7DEB707
:100A400082E0898342E450E069E077E080E80E9438
:100A5000F3040E943004DC0112960D911C910115E3
:100A6000110589F0D801ED91FC910280F381E02D10
:100A7000BE016F5F7F4FC801099597FD04C0F80163
:100A800000851185ECCF89810F90DF91CF911F9167
:100A90000F910895615030F02091F100FC01208306
:100AA0000196F8CF289884E680935C010895AF9270
:100AB000BF92CF92DF92EF92FF920F931F93CF934B
:100AC000DF936C017B018B01040F151FEB015E01AD
:100AD000AE18BF08C017D10759F06991D601ED9142
:100AE000FC910190F081E02DC6010995892B79F7E1
:100AF000C501DF91CF911F910F91FF90EF90DF9093
:100B0000CF90BF90AF900895FC010E941B063197D3
:100B100028F068517C4F8F4F9F4FF9CFAB01FC01FC
:100B20000E941B06641775078E079F07C8F3089578
:100B30008F929F92AF92BF92CF92DF92EF92FF92ED
:100B40000F931F93CF93DF936C017B018A018091F8
:100B50000B01882309F45AC080915D01882309F4B0
:100B600055C080914F0180FF05C08091E0008260F8
:100B70008093E000E801B12C8AEFA82E93E0892E43
:100B80002AE3922E209711F4BB20C9F10E941F0482
:100B9000811108C0AA94AA20C9F181E090E00E94C6
:100BA0008405F0CF8C171D0611F00CF08C2F9FB729
:100BB000F8948092E9002091E80025FD02C09FBFD3
:100BC000E1CF282F30E0C21BD30BF701815020F07A
:100BD00041914093F100FACFE20EF31EBB2021F0C9
:100BE0009092E800B12CEBCF8091E80085FDE7CF33
:100BF0009092E800BB24B394209709F3F3CF5D985B
:100C000084E680934E01101611063CF081E090E0DE
:100C1000F6019383828310E000E0C801DF91CF9159
:100C20001F910F91FF90EF90DF90CF90BF90AF900A
:100C30009F908F900895A0E4B1E02FB7F8947D9134
:100C40008D919C9166B52FBFA89B05C06F3F18F48E
:100C50007F5F8F4F9F4F22E0660F771F881F991F7E
:100C60002A95D1F708952D9A08950C9484052F9212
:100C70003F924F925F926F927F928F929F92AF922C
:100C8000BF92CF92DF92EF92FF920F931F93CF9379
:100C9000DF9300D000D01F92CDB7DEB79C838B834B
:100CA0006A3059F5DC0155968C91B8E08B9F900124
:100CB0001124EB81FC8181899289820F931F928B91
:100CC000818B108A178681E090E00F900F900F9033
:100CD0000F900F90DF91CF911F910F91FF90EF90A8
:100CE000DF90CF90BF90AF909F908F907F906F904C
:100CF0005F904F903F902F9008956D3021F3AB811E
:100D0000BC811F968D919C915097803891050CF075
:100D100087C05196CD90DC90B0E4CB16D1040CF096
:100D20007FC0EB81FC819588E5E09C019E9E200DB3
:100D3000311D1124121613060CF072C0E92CF12C8F
:100D40009701B3E0220F331FBA95E1F72C0D3D1D3B
:100D5000121613060CF064C0AB81BC8154965C90F3
:100D6000549753964C906E9FF0011124E455FF4F19
:100D700070E02491753009F420E05601A8E06A2E55
:100D8000222E312C642D20FF652D611103C05414D7
:100D900009F437C0AC0161706A834983242F281B92
:100DA000291578F510E000E0091540F540385105A7
:100DB00010F598012A0D3B1D20343105E0F460E167
:100DC000762E898061E021FD64E020FD660F22FD22
:100DD0006295287F729ED0011124A80D6D83A25ABE
:100DE000BE4F2C913A81862E822A311103C08D800C
:100DF000809482228C920F5F1F4FD6CF4F5F5F4F40
:100E0000CCCF9101359527956A94AE0CBF1C61102B
:100E1000B7CF7F5F31968E0D9F1D763009F0A9CF39
:100E2000AB81BC8155962C915597422F50E01F966F
:100E30008D919C91B6E02B9F800D911D1124EB812B
:100E4000FC81908B87872689222309F43CCF6AEFA7
:100E500064039001659F300D112420583F4F2817DF
:100E600039070CF030CFCF010190F081E02D0190D7
:100E7000F081E02D6AE0099526CF0F931F93CF9361
:100E8000DF938C01D0E0C0E0F801EC0FFD1F64910E
:100E9000662341F08EEA95E00E943706892B11F017
:100EA0002196F2CF42E050E069E371E08EEA95E0EE
:100EB0000E9457058C0F9D1FDF91CF911F910F91BD
:100EC00008950895089590E080E008950C94CB0C67
:100ED0001F920F920FB60F9211248F939F938091C0
:100EE000E1009091E100937F9093E10083FF0FC0B8
:100EF0001092E90091E09093EB001092EC0092E3E5
:100F00009093ED0010925D0198E09093F00082FFC5
:100F100022C093E09093E9009091F200992319F098
:100F20009AE39093E80090914E01992341F09091BB
:100F30004E01915090934E01911101C05D9A909194
:100F40005C01992341F090915C01915090935C0178
:100F5000911101C0289A84FF18C08091E2008E7E12
:100F600081608093E2008091E1008F7E8093E100B8
:100F700080914F018E7E806180934F019F918F9170
:100F80000F900FBE0F901F90189580FFF7CF8091A4
:100F9000E2008E7E80618093E2008091E1008E7E8F
:100FA0008093E10080914F018E7E8160E5CF1F929A
:100FB0000F920FB60F921124CF92DF92EF92FF9211
:100FC0000F931F932F933F934F935F936F937F9351
:100FD0008F939F93AF93BF93EF93FF93CF93DF9341
:100FE000CDB7DEB76C97DEBFCDBF1092E900809120
:100FF000E80083FF25C068E0CE0145960E944A05BF
:1010000082EF8093E8008D8987FF39C09091E800D6
:1010100090FFFCCF982F907609F034C19E894F89BC
:10102000588D2F89F88C911131C0803861F58091ED
:101030004D018093F1001092F1008EEF8093E80053
:101040006C960FB6F894DEBF0FBECDBFDF91CF9187
:10105000FF91EF91BF91AF919F918F917F916F9190
:101060005F914F913F912F911F910F91FF90EF90C2
:10107000DF90CF900F900FBE0F901F9018959EEFAE
:101080009093E800C7CF1092F100D5CF913059F47A
:101090008111D3CF4130510581F680914D018D7F73
:1010A00080934D01CACF933049F48111C6CF4130AE
:1010B000510519F680914D018260F2CF953041F4CF
:1010C0008091E80080FFFCCF20682093E300B5CF3B
:1010D000963009F0A9C00B8D1C8D22E01092E9001A
:1010E00010924B0110924A01F2122EC01092490147
:1010F000109248010E9419051F8299E09983FA8293
:1011000091E09E8390EA98879AEF998720914A010F
:1011100030914B01275F3F4F3C832B838D8310928F
:10112000E90010924B0110924A011093490100937B
:10113000480149E050E0BE016F5F7F4F80E00E94B0
:10114000F3040E94190579CF1093490100934801D7
:101150000E943004DC0112960D911C9101151105BD
:1011600009F410C1D801ED91FC910480F581E02DC6
:10117000BE016B5E7F4FC8010995009709F0FDC065
:10118000F80100851185EACFF3E0FF120EC08F89C8
:10119000882309F440C0823061F440E867E08DE6BE
:1011A00097E00E942D0A811148CF81E28093EB00E5
:1011B00047CF813029F440E86BE081E697E0F1CF3A
:1011C000833099F70E943004DC011296ED90FC9078
:1011D0008E010F5F1F4F6801E114F10479F0D70110
:1011E000ED91FC910680F781E02DB801C7010995CA
:1011F000080F111DF701E084F184EECFD8011C9295
:10120000F60101900020E9F73197BF016C197D09C3
:1012100040E0C601C6CF6BE477E0FB01449150E0AB
:1012200080E80E94F30409CF973009F4BECF9830CC
:1012300021F481E08093F10000CF993009F0FDCED8
:10124000837009F0B2CFEDE0F1E081E031E096E3A8
:101250002191222371F08093E9003093EB00DF01AC
:1012600011972C912093EC009093ED008F5F8730C5
:1012700079F78EE78093EA001092EA008F898093D5
:101280005D01DBCE8B8D9C8D1092E90010924B019D
:1012900010924A019093490180934801898D8111F0
:1012A00051C08E899D89913A49F4813209F07DCFF0
:1012B00047E050E064E071E080E0B3CF913209F0A4
:1012C00074CF833269F48F89988DB0E0A0E0809369
:1012D000000190930101A0930201B0930301ADCEF0
:1012E000803269F48091E80082FFFCCF67E084E0FF
:1012F00091E00E944A058BEF8093E8009ECE8232F7
:1013000009F09BCE8F8980930B018091040190910D
:101310000501A0910601B0910701803B9440A10511
:10132000B10569F480910B0180FD09C088E78093C5
:101330004C01809164008F7D809364007ECE10927A
:101340004C017BCE0E943004DC0112960D911C9161
:101350000115110509F429CFD801ED91FC910190F7
:10136000F081E02DBE016B5E7F4FC80109958111B0
:1013700064CEF80100851185EBCF181619060CF420
:101380005CCE13CFF1E0FF12FFCE6FE477E045CFE4
:101390000F930FB70F931F9211248F939F93EF9387
:1013A000FF93E4E4F1E080913F0191E08D5F8D37A0
:1013B00010F08D57939580933F018081890F808332
:1013C0009181911D91830281011D02838381811D81
:1013D000838309270F700927029500933E0135D0BA
:1013E000811100933C01803989F400913D01901BEB
:1013F000963070F087E7809300088093010888E1B9
:1014000098E08093600090936000FFCF90933D013F
:1014100080914C01815018F080934C0159F3E0E425
:10142000F1E0808191810196808391838281938113
:10143000811D911D82839383FF91EF919F918F91E5
:101440001F900F910FBF0F9118958FB18095807FDE
:10145000669B88601C9B84600895EF92FF920F93B7
:101460001F93CF93DF93F82E192FE62E042F81E0E0
:10147000860F880F0E94C50483E00E94C504CF2D0B
:10148000D12FEC0EFD2EF11CCE15DF05B9F007FFB4
:1014900013C0FE0184910E94C504182F80E00E94B1
:1014A000C504812321968111EFCFDF91CF911F9148
:1014B0000F91FF90EF9008958881EDCF81E0F5CFF7
:1014C0000F931F93CF93DF938C0181E090E00E94F4
:1014D000660780FF32C08AE090E00E9466079FEFB7
:1014E000980F9E3F50F522E330E0D80150963C9390
:1014F0002E931F9728E330E052963C932E935197FA
:10150000CBE0D0E0D801ED91FC910190F081E02D8D
:10151000682FC8010995CE010E9466072196C13146
:10152000D10581F780E00E94E60388EE93E0DF9129
:10153000CF911F910F910C943506DF91CF911F91A0
:101540000F91089504970C94600AEEE5F5E013827C
:10155000128288EE93E0A0E0B0E084839583A683B6
:10156000B78387E191E0918380838FEF9FEF958729
:101570008487EEEAF5E0138212821186128680E1FA
:10158000838710861782158689E291E09183808394
:1015900087E391E095838483108A1786128A118AE3
:1015A00081E0838B148A858B168A0895789483E072
:1015B00084BD83E085BD81E080936E00E1E8F0E0CA
:1015C00083E08083E0E881E08083E1E983E0808359
:1015D000E0E981E08083E1EC87E08083E3EC81E077
:1015E0008083E0EC82E08083E2EC81E08083EAE7C4
:1015F00087E080838068808310925D0110924D01A6
:1016000010924F018091D70081608093D70080EACB
:101610008093D80089B5806189BD89B5826089BD14
:1016200009B400FEFDCF81E090E00E948405809126
:10163000D8008F7C80618093D8008091E000807F0B
:101640008093E0008091E1008E7E8093E1008DE048
:101650008093E200559A209A81EC80937C0081EF80
:1016600085B987EE84B984E38BB984EF8AB9769A19
:101670006E9880EF81BB10BA80E58CBD81E08DBD96
:1016800085E090E00E9435065F9902C05F9AF8CF2E
:101690005C98ECE5F6E09DE085918EBD00000DB410
:1016A00007FEFDCF8EB59A95B9F75C9A81E88093D5
:1016B000640081E0809365000E94E6030E94250A91
:1016C00087FF11C05C9885EA8EBD00000DB407FE4F
:1016D000FDCF8EB55C9A2E982F982D9881E083BF10
:1016E000889513BEFCCF0E94250A82FF48C02D9822
:1016F0000E94250A84788438E1F40E94330688EC3D
:1017000090E00E9435062F9882E090E00E94CB0C7A
:101710008F3F29F06FEF82E090E00E94D30C84EFBE
:1017200091E00E9435062F9A0E94250A8478843819
:10173000D9F30E94250A84718431E1F40E943306B2
:1017400088EC90E00E9435062E9882E090E00E949E
:10175000CB0C882329F060E082E090E00E94D30C5B
:1017600084EF91E00E9435062E9A0E94250A84712A
:101770008431D9F388EC90E00E943506B4CF0E9402
:10178000330682E090E00E946607882309F43EC099
:101790003E9A3F9A81E090E00E946607182F1470ED
:1017A00081FF0CC011112E98C0EFDFEF0E94250AB7
:1017B00086FF2FC02E9A2F9A0E94330682E390E074
:1017C0000E9435060E94250A8111F8CF82E4809399
:1017D000B905FF24F3940EE511E0C0E0D0E0EE245B
:1017E000E394209144018091BA05F22FF81B8F2FCA
:1017F0009091BB05992309F47EC0F093BC0510922B
:10180000BB05209771F30E940000EBCF3E983F98F4
:10181000C1CF112329F0C430D10511F42E9A2F988D
:1018200081E00E94E6030C2F0770A02EAE0183E03A
:10183000559547958A95E1F7CA019695982F88277F
:1018400097958795825A9E4F70E060E04E3F2FEF4C
:10185000520769F130E020E0DB01A455BA4F7C016A
:10186000E0E8EE0EF11CFD01E20FF31FE491F0E061
:101870004F010A2C02C0880C991C0A94E2F74F3FD2
:10188000540739F06C01C20ED31EF601B488B82893
:10189000B48AAA2039F06701C20ED31EF60104896A
:1018A0000929048B2F5F3F4F28353105E1F64F5F43
:1018B0005F4F80589F4F685A7F4F603B710531F6EC
:1018C00080E00E94E6038FE090E00E9435062196BA
:1018D000C931D10509F06ACF112311F02F9A2D9843
:1018E00080E991E00E9435060E9433068EEA95E079
:1018F0000E94600A63CF3091B905F31740F48F5FFF
:10190000831708F07ECFF3BE889513BE7ACFE0929E
:10191000BB052093BA052091B5053091B6052F5F20
:101920003F4F3093B6052093B505F80191119FEF15
:101930008FEF91939193919391938150D0F710925F
:10194000C0051092BF051092BE051092BD0586EF2E
:1019500096E00E943D0780EE96E00E943D078AECEB
:1019600096E00E943D0784EB96E00E943D078EE9D9
:1019700096E00E943D0789E896E00E943D078FE7C8
:1019800096E00E943D0789E696E00E943D0780E0D0
:101990000E94E60336CFF999FECF92BD81BDF89A39
:1019A000992780B50895262FF999FECF1FBA92BDC9
:1019B00081BD20BD0FB6F894FA9AF99A0FBE019630
:1019C0000895EE0FFF1F0590F491E02D0994F8940F
:0219D000FFCF47
:1019D200FFFFFFFF00E100000000000000C1808166
:1019E200000000000000004404980565045A04AB9E
:1019F2000469048704000000003706570563076284
:0C1A020007600AFCFF0000A20A0D0A00A9
:00000001FF
